{
  "_format": "hh-sol-artifact-1",
  "contractName": "ERC20Verifier",
  "sourceName": "contracts/ERC20Verifier.sol",
  "abi": [
    {
      "anonymous": false,
      "inputs": [
        {
          "indexed": true,
          "internalType": "address",
          "name": "previousOwner",
          "type": "address"
        },
        {
          "indexed": true,
          "internalType": "address",
          "name": "newOwner",
          "type": "address"
        }
      ],
      "name": "OwnershipTransferred",
      "type": "event"
    },
    {
      "anonymous": false,
      "inputs": [
        {
          "indexed": false,
          "internalType": "string",
          "name": "message",
          "type": "string"
        },
        {
          "indexed": false,
          "internalType": "address",
          "name": "useraddress",
          "type": "address"
        },
        {
          "indexed": false,
          "internalType": "uint256",
          "name": "id",
          "type": "uint256"
        }
      ],
      "name": "ValidateUser",
      "type": "event"
    },
    {
      "inputs": [],
      "name": "REQUESTS_RETURN_LIMIT",
      "outputs": [
        {
          "internalType": "uint256",
          "name": "",
          "type": "uint256"
        }
      ],
      "stateMutability": "view",
      "type": "function"
    },
    {
      "inputs": [],
      "name": "TRANSFER_REQUEST_ID_MTP_VALIDATOR",
      "outputs": [
        {
          "internalType": "uint64",
          "name": "",
          "type": "uint64"
        }
      ],
      "stateMutability": "view",
      "type": "function"
    },
    {
      "inputs": [],
      "name": "TRANSFER_REQUEST_ID_SIG_VALIDATOR",
      "outputs": [
        {
          "internalType": "uint64",
          "name": "",
          "type": "uint64"
        }
      ],
      "stateMutability": "view",
      "type": "function"
    },
    {
      "inputs": [
        {
          "internalType": "address",
          "name": "",
          "type": "address"
        }
      ],
      "name": "addressToId",
      "outputs": [
        {
          "internalType": "uint256",
          "name": "",
          "type": "uint256"
        }
      ],
      "stateMutability": "view",
      "type": "function"
    },
    {
      "inputs": [
        {
          "internalType": "uint64",
          "name": "requestId",
          "type": "uint64"
        }
      ],
      "name": "getZKPRequest",
      "outputs": [
        {
          "components": [
            {
              "internalType": "string",
              "name": "metadata",
              "type": "string"
            },
            {
              "internalType": "contract ICircuitValidator",
              "name": "validator",
              "type": "address"
            },
            {
              "internalType": "bytes",
              "name": "data",
              "type": "bytes"
            }
          ],
          "internalType": "struct IZKPVerifier.ZKPRequest",
          "name": "",
          "type": "tuple"
        }
      ],
      "stateMutability": "view",
      "type": "function"
    },
    {
      "inputs": [
        {
          "internalType": "uint256",
          "name": "startIndex",
          "type": "uint256"
        },
        {
          "internalType": "uint256",
          "name": "length",
          "type": "uint256"
        }
      ],
      "name": "getZKPRequests",
      "outputs": [
        {
          "components": [
            {
              "internalType": "string",
              "name": "metadata",
              "type": "string"
            },
            {
              "internalType": "contract ICircuitValidator",
              "name": "validator",
              "type": "address"
            },
            {
              "internalType": "bytes",
              "name": "data",
              "type": "bytes"
            }
          ],
          "internalType": "struct IZKPVerifier.ZKPRequest[]",
          "name": "",
          "type": "tuple[]"
        }
      ],
      "stateMutability": "view",
      "type": "function"
    },
    {
      "inputs": [],
      "name": "getZKPRequestsCount",
      "outputs": [
        {
          "internalType": "uint256",
          "name": "",
          "type": "uint256"
        }
      ],
      "stateMutability": "view",
      "type": "function"
    },
    {
      "inputs": [
        {
          "internalType": "uint256",
          "name": "",
          "type": "uint256"
        }
      ],
      "name": "idToAddress",
      "outputs": [
        {
          "internalType": "address",
          "name": "",
          "type": "address"
        }
      ],
      "stateMutability": "view",
      "type": "function"
    },
    {
      "inputs": [],
      "name": "owner",
      "outputs": [
        {
          "internalType": "address",
          "name": "",
          "type": "address"
        }
      ],
      "stateMutability": "view",
      "type": "function"
    },
    {
      "inputs": [
        {
          "internalType": "address",
          "name": "",
          "type": "address"
        },
        {
          "internalType": "uint64",
          "name": "",
          "type": "uint64"
        }
      ],
      "name": "proofs",
      "outputs": [
        {
          "internalType": "bool",
          "name": "",
          "type": "bool"
        }
      ],
      "stateMutability": "view",
      "type": "function"
    },
    {
      "inputs": [],
      "name": "renounceOwnership",
      "outputs": [],
      "stateMutability": "nonpayable",
      "type": "function"
    },
    {
      "inputs": [
        {
          "internalType": "uint64",
          "name": "requestId",
          "type": "uint64"
        }
      ],
      "name": "requestIdExists",
      "outputs": [
        {
          "internalType": "bool",
          "name": "",
          "type": "bool"
        }
      ],
      "stateMutability": "view",
      "type": "function"
    },
    {
      "inputs": [
        {
          "internalType": "uint64",
          "name": "requestId",
          "type": "uint64"
        },
        {
          "components": [
            {
              "internalType": "string",
              "name": "metadata",
              "type": "string"
            },
            {
              "internalType": "contract ICircuitValidator",
              "name": "validator",
              "type": "address"
            },
            {
              "internalType": "bytes",
              "name": "data",
              "type": "bytes"
            }
          ],
          "internalType": "struct IZKPVerifier.ZKPRequest",
          "name": "request",
          "type": "tuple"
        }
      ],
      "name": "setZKPRequest",
      "outputs": [],
      "stateMutability": "nonpayable",
      "type": "function"
    },
    {
      "inputs": [
        {
          "internalType": "uint64",
          "name": "requestId",
          "type": "uint64"
        },
        {
          "internalType": "uint256[]",
          "name": "inputs",
          "type": "uint256[]"
        },
        {
          "internalType": "uint256[2]",
          "name": "a",
          "type": "uint256[2]"
        },
        {
          "internalType": "uint256[2][2]",
          "name": "b",
          "type": "uint256[2][2]"
        },
        {
          "internalType": "uint256[2]",
          "name": "c",
          "type": "uint256[2]"
        }
      ],
      "name": "submitZKPResponse",
      "outputs": [],
      "stateMutability": "nonpayable",
      "type": "function"
    },
    {
      "inputs": [
        {
          "internalType": "address",
          "name": "newOwner",
          "type": "address"
        }
      ],
      "name": "transferOwnership",
      "outputs": [],
      "stateMutability": "nonpayable",
      "type": "function"
    }
  ],
  "bytecode": "0x60806040523480156200001157600080fd5b5062000032620000266200003860201b60201c565b6200004060201b60201c565b62000104565b600033905090565b60008060009054906101000a900473ffffffffffffffffffffffffffffffffffffffff169050816000806101000a81548173ffffffffffffffffffffffffffffffffffffffff021916908373ffffffffffffffffffffffffffffffffffffffff1602179055508173ffffffffffffffffffffffffffffffffffffffff168173ffffffffffffffffffffffffffffffffffffffff167f8be0079c531659141344cd1fd0a4f28419497f9722a3daafe3b4186f6b6457e060405160405180910390a35050565b612e2a80620001146000396000f3fe608060405234801561001057600080fd5b50600436106100f55760003560e01c80639f5223e011610097578063b68967e211610066578063b68967e214610276578063c76d084514610292578063cb0e0d7d146102c2578063f2fde38b146102f2576100f5565b80639f5223e0146101dc578063a75c901c146101f8578063ab7bcfb714610216578063b45c0fdf14610246576100f5565b80636508e1b4116100d35780636508e1b414610178578063715018a61461019657806377ec34a7146101a05780638da5cb5b146101be576100f5565b80631905e7b1146100fa5780632a2d0c47146101185780635f9e60d714610148575b600080fd5b61010261030e565b60405161010f9190611665565b60405180910390f35b610132600480360381019061012d91906116b6565b610314565b60405161013f9190611724565b60405180910390f35b610162600480360381019061015d919061173f565b610348565b60405161016f91906119dc565b60405180910390f35b61018061060a565b60405161018d9190611665565b60405180910390f35b61019e610618565b005b6101a861062c565b6040516101b59190611a21565b60405180910390f35b6101c6610631565b6040516101d39190611724565b60405180910390f35b6101f660048036038101906101f19190611a8c565b61065a565b005b6102006106f5565b60405161020d9190611a21565b60405180910390f35b610230600480360381019061022b9190611ae8565b6106fa565b60405161023d9190611b30565b60405180910390f35b610260600480360381019061025b9190611b77565b610791565b60405161026d9190611b30565b60405180910390f35b610290600480360381019061028b9190611c60565b6107c1565b005b6102ac60048036038101906102a79190611ae8565b610a3f565b6040516102b99190611d53565b60405180910390f35b6102dc60048036038101906102d79190611d75565b610c43565b6040516102e99190611665565b60405180910390f35b61030c60048036038101906103079190611d75565b610c5c565b005b6103e881565b6102276020528060005260406000206000915054906101000a900473ffffffffffffffffffffffffffffffffffffffff1681565b60606000806103616101f78054905086866103e8610cdf565b91509150600082826103739190611dd1565b67ffffffffffffffff81111561038c5761038b611e05565b5b6040519080825280602002602001820160405280156103c557816020015b6103b2611615565b8152602001906001900390816103aa5790505b50905060008390505b828110156105fd576101f660006101f783815481106103f0576103ef611e34565b5b90600052602060002090600491828204019190066008029054906101000a900467ffffffffffffffff1667ffffffffffffffff1667ffffffffffffffff16815260200190815260200160002060405180606001604052908160008201805461045790611e92565b80601f016020809104026020016040519081016040528092919081815260200182805461048390611e92565b80156104d05780601f106104a5576101008083540402835291602001916104d0565b820191906000526020600020905b8154815290600101906020018083116104b357829003601f168201915b505050505081526020016001820160009054906101000a900473ffffffffffffffffffffffffffffffffffffffff1673ffffffffffffffffffffffffffffffffffffffff1673ffffffffffffffffffffffffffffffffffffffff16815260200160028201805461053f90611e92565b80601f016020809104026020016040519081016040528092919081815260200182805461056b90611e92565b80156105b85780601f1061058d576101008083540402835291602001916105b8565b820191906000526020600020905b81548152906001019060200180831161059b57829003601f168201915b5050505050815250508285836105ce9190611dd1565b815181106105df576105de611e34565b5b602002602001018190525080806105f590611ec3565b9150506103ce565b5080935050505092915050565b60006101f780549050905090565b610620610dd6565b61062a6000610e54565b565b600281565b60008060009054906101000a900473ffffffffffffffffffffffffffffffffffffffff16905090565b610662610dd6565b806101f660008467ffffffffffffffff1667ffffffffffffffff168152602001908152602001600020818161069791906124ed565b9050506101f78290806001815401808255809150506001900390600052602060002090600491828204019190066008029091909190916101000a81548167ffffffffffffffff021916908367ffffffffffffffff1602179055505050565b600181565b600080600090505b6101f780549050811015610786578267ffffffffffffffff166101f782815481106107305761072f611e34565b5b90600052602060002090600491828204019190066008029054906101000a900467ffffffffffffffff1667ffffffffffffffff160361077357600191505061078c565b808061077e90611ec3565b915050610702565b50600090505b919050565b6101f56020528160005260406000206020528060005260406000206000915091509054906101000a900460ff1681565b600073ffffffffffffffffffffffffffffffffffffffff166101f660008867ffffffffffffffff1667ffffffffffffffff16815260200190815260200160002060010160009054906101000a900473ffffffffffffffffffffffffffffffffffffffff1673ffffffffffffffffffffffffffffffffffffffff160361087b576040517f08c379a00000000000000000000000000000000000000000000000000000000081526004016108729061257e565b60405180910390fd5b61091286868680806020026020016040519081016040528093929190818152602001838360200280828437600081840152601f19601f820116905080830192505050505050506101f660008a67ffffffffffffffff1667ffffffffffffffff16815260200190815260200160002060010160009054906101000a900473ffffffffffffffffffffffffffffffffffffffff16610f18565b61092186868686868633611031565b5060016101f560003373ffffffffffffffffffffffffffffffffffffffff1673ffffffffffffffffffffffffffffffffffffffff16815260200190815260200160002060008867ffffffffffffffff1667ffffffffffffffff16815260200190815260200160002060006101000a81548160ff021916908315150217905550610a3786868680806020026020016040519081016040528093929190818152602001838360200280828437600081840152601f19601f820116905080830192505050505050506101f660008a67ffffffffffffffff1667ffffffffffffffff16815260200190815260200160002060010160009054906101000a900473ffffffffffffffffffffffffffffffffffffffff1661131d565b505050505050565b610a47611615565b610a50826106fa565b610a8f576040517f08c379a0000000000000000000000000000000000000000000000000000000008152600401610a86906125ea565b60405180910390fd5b6101f660008367ffffffffffffffff1667ffffffffffffffff168152602001908152602001600020604051806060016040529081600082018054610ad290611e92565b80601f0160208091040260200160405190810160405280929190818152602001828054610afe90611e92565b8015610b4b5780601f10610b2057610100808354040283529160200191610b4b565b820191906000526020600020905b815481529060010190602001808311610b2e57829003601f168201915b505050505081526020016001820160009054906101000a900473ffffffffffffffffffffffffffffffffffffffff1673ffffffffffffffffffffffffffffffffffffffff1673ffffffffffffffffffffffffffffffffffffffff168152602001600282018054610bba90611e92565b80601f0160208091040260200160405190810160405280929190818152602001828054610be690611e92565b8015610c335780601f10610c0857610100808354040283529160200191610c33565b820191906000526020600020905b815481529060010190602001808311610c1657829003601f168201915b5050505050815250509050919050565b6102286020528060005260406000206000915090505481565b610c64610dd6565b600073ffffffffffffffffffffffffffffffffffffffff168173ffffffffffffffffffffffffffffffffffffffff1603610cd3576040517f08c379a0000000000000000000000000000000000000000000000000000000008152600401610cca9061267c565b60405180910390fd5b610cdc81610e54565b50565b60008060008411610d25576040517f08c379a0000000000000000000000000000000000000000000000000000000008152600401610d1c906126e8565b60405180910390fd5b82841115610d68576040517f08c379a0000000000000000000000000000000000000000000000000000000008152600401610d5f90612754565b60405180910390fd5b858510610daa576040517f08c379a0000000000000000000000000000000000000000000000000000000008152600401610da1906127c0565b60405180910390fd5b60008486610db891906127e0565b905086811115610dc6578690505b8581925092505094509492505050565b610dde611434565b73ffffffffffffffffffffffffffffffffffffffff16610dfc610631565b73ffffffffffffffffffffffffffffffffffffffff1614610e52576040517f08c379a0000000000000000000000000000000000000000000000000000000008152600401610e4990612860565b60405180910390fd5b565b60008060009054906101000a900473ffffffffffffffffffffffffffffffffffffffff169050816000806101000a81548173ffffffffffffffffffffffffffffffffffffffff021916908373ffffffffffffffffffffffffffffffffffffffff1602179055508173ffffffffffffffffffffffffffffffffffffffff168173ffffffffffffffffffffffffffffffffffffffff167f8be0079c531659141344cd1fd0a4f28419497f9722a3daafe3b4186f6b6457e060405160405180910390a35050565b6000610fb4838373ffffffffffffffffffffffffffffffffffffffff1663b16a394f6040518163ffffffff1660e01b8152600401610f55906128cc565b602060405180830381865afa158015610f72573d6000803e3d6000fd5b505050506040513d601f19601f82011682018060405250810190610f969190612901565b81518110610fa757610fa6611e34565b5b602002602001015161143c565b90508073ffffffffffffffffffffffffffffffffffffffff16610fd5611434565b73ffffffffffffffffffffffffffffffffffffffff161461102b576040517f08c379a0000000000000000000000000000000000000000000000000000000008152600401611022906129a0565b60405180910390fd5b50505050565b6000806101f660008a67ffffffffffffffff1667ffffffffffffffff16815260200190815260200160002060405180606001604052908160008201805461107790611e92565b80601f01602080910402602001604051908101604052809291908181526020018280546110a390611e92565b80156110f05780601f106110c5576101008083540402835291602001916110f0565b820191906000526020600020905b8154815290600101906020018083116110d357829003601f168201915b505050505081526020016001820160009054906101000a900473ffffffffffffffffffffffffffffffffffffffff1673ffffffffffffffffffffffffffffffffffffffff1673ffffffffffffffffffffffffffffffffffffffff16815260200160028201805461115f90611e92565b80601f016020809104026020016040519081016040528092919081815260200182805461118b90611e92565b80156111d85780601f106111ad576101008083540402835291602001916111d8565b820191906000526020600020905b8154815290600101906020018083116111bb57829003601f168201915b50505050508152505090506000635307e79f60e01b90506000818a8a8a8a8a886040015160405160200161121196959493929190612b54565b6040516020818303038152906040528660405160200161123393929190612c8a565b6040516020818303038152906040529050600080846020015173ffffffffffffffffffffffffffffffffffffffff16836040516112709190612cc3565b6000604051808303816000865af19150503d80600081146112ad576040519150601f19603f3d011682016040523d82523d6000602084013e6112b2565b606091505b50915091508161130a576000815111156112cf5780518082602001fd5b6040517f08c379a000000000000000000000000000000000000000000000000000000000815260040161130190612d4c565b60405180910390fd5b8195505050505050979650505050505050565b600167ffffffffffffffff168367ffffffffffffffff1614806113545750600267ffffffffffffffff168367ffffffffffffffff16145b1561142f5760008260018151811061136f5761136e611e34565b5b602002602001015190507f59f22a576cef3684ef420482448bf9079e66127fb1fa8b015339676c4c28f391610227600083815260200190815260200160002060009054906101000a900473ffffffffffffffffffffffffffffffffffffffff1661022860006113dc611434565b73ffffffffffffffffffffffffffffffffffffffff1673ffffffffffffffffffffffffffffffffffffffff16815260200190815260200160002054604051611425929190612db8565b60405180910390a1505b505050565b600033905090565b600061145761145261144d8461145e565b6115aa565b611607565b9050919050565b600081905060087eff00ff00ff00ff00ff00ff00ff00ff00ff00ff00ff00ff00ff00ff00ff00ff8216901b60087fff00ff00ff00ff00ff00ff00ff00ff00ff00ff00ff00ff00ff00ff00ff00ff008316901c17905060107dffff0000ffff0000ffff0000ffff0000ffff0000ffff0000ffff0000ffff8216901b60107fffff0000ffff0000ffff0000ffff0000ffff0000ffff0000ffff0000ffff00008316901c17905060207bffffffff00000000ffffffff00000000ffffffff00000000ffffffff8216901b60207fffffffff00000000ffffffff00000000ffffffff00000000ffffffff000000008316901c179050604077ffffffffffffffff0000000000000000ffffffffffffffff8216901b60407fffffffffffffffff0000000000000000ffffffffffffffff00000000000000008316901c179050608081901b608082901c179050919050565b6060602067ffffffffffffffff8111156115c7576115c6611e05565b5b6040519080825280601f01601f1916602001820160405280156115f95781602001600182028036833780820191505090505b509050816020820152919050565b600060148201519050919050565b604051806060016040528060608152602001600073ffffffffffffffffffffffffffffffffffffffff168152602001606081525090565b6000819050919050565b61165f8161164c565b82525050565b600060208201905061167a6000830184611656565b92915050565b600080fd5b600080fd5b6116938161164c565b811461169e57600080fd5b50565b6000813590506116b08161168a565b92915050565b6000602082840312156116cc576116cb611680565b5b60006116da848285016116a1565b91505092915050565b600073ffffffffffffffffffffffffffffffffffffffff82169050919050565b600061170e826116e3565b9050919050565b61171e81611703565b82525050565b60006020820190506117396000830184611715565b92915050565b6000806040838503121561175657611755611680565b5b6000611764858286016116a1565b9250506020611775858286016116a1565b9150509250929050565b600081519050919050565b600082825260208201905092915050565b6000819050602082019050919050565b600081519050919050565b600082825260208201905092915050565b60005b838110156117e55780820151818401526020810190506117ca565b60008484015250505050565b6000601f19601f8301169050919050565b600061180d826117ab565b61181781856117b6565b93506118278185602086016117c7565b611830816117f1565b840191505092915050565b6000819050919050565b600061186061185b611856846116e3565b61183b565b6116e3565b9050919050565b600061187282611845565b9050919050565b600061188482611867565b9050919050565b61189481611879565b82525050565b600081519050919050565b600082825260208201905092915050565b60006118c18261189a565b6118cb81856118a5565b93506118db8185602086016117c7565b6118e4816117f1565b840191505092915050565b6000606083016000830151848203600086015261190c8282611802565b9150506020830151611921602086018261188b565b506040830151848203604086015261193982826118b6565b9150508091505092915050565b600061195283836118ef565b905092915050565b6000602082019050919050565b60006119728261177f565b61197c818561178a565b93508360208202850161198e8561179b565b8060005b858110156119ca57848403895281516119ab8582611946565b94506119b68361195a565b925060208a01995050600181019050611992565b50829750879550505050505092915050565b600060208201905081810360008301526119f68184611967565b905092915050565b600067ffffffffffffffff82169050919050565b611a1b816119fe565b82525050565b6000602082019050611a366000830184611a12565b92915050565b611a45816119fe565b8114611a5057600080fd5b50565b600081359050611a6281611a3c565b92915050565b600080fd5b600060608284031215611a8357611a82611a68565b5b81905092915050565b60008060408385031215611aa357611aa2611680565b5b6000611ab185828601611a53565b925050602083013567ffffffffffffffff811115611ad257611ad1611685565b5b611ade85828601611a6d565b9150509250929050565b600060208284031215611afe57611afd611680565b5b6000611b0c84828501611a53565b91505092915050565b60008115159050919050565b611b2a81611b15565b82525050565b6000602082019050611b456000830184611b21565b92915050565b611b5481611703565b8114611b5f57600080fd5b50565b600081359050611b7181611b4b565b92915050565b60008060408385031215611b8e57611b8d611680565b5b6000611b9c85828601611b62565b9250506020611bad85828601611a53565b9150509250929050565b600080fd5b600080fd5b600080fd5b60008083601f840112611bdc57611bdb611bb7565b5b8235905067ffffffffffffffff811115611bf957611bf8611bbc565b5b602083019150836020820283011115611c1557611c14611bc1565b5b9250929050565b600081905082602060020282011115611c3857611c37611bc1565b5b92915050565b600081905082604060020282011115611c5a57611c59611bc1565b5b92915050565b6000806000806000806101408789031215611c7e57611c7d611680565b5b6000611c8c89828a01611a53565b965050602087013567ffffffffffffffff811115611cad57611cac611685565b5b611cb989828a01611bc6565b95509550506040611ccc89828a01611c1c565b9350506080611cdd89828a01611c3e565b925050610100611cef89828a01611c1c565b9150509295509295509295565b60006060830160008301518482036000860152611d198282611802565b9150506020830151611d2e602086018261188b565b5060408301518482036040860152611d4682826118b6565b9150508091505092915050565b60006020820190508181036000830152611d6d8184611cfc565b905092915050565b600060208284031215611d8b57611d8a611680565b5b6000611d9984828501611b62565b91505092915050565b7f4e487b7100000000000000000000000000000000000000000000000000000000600052601160045260246000fd5b6000611ddc8261164c565b9150611de78361164c565b9250828203905081811115611dff57611dfe611da2565b5b92915050565b7f4e487b7100000000000000000000000000000000000000000000000000000000600052604160045260246000fd5b7f4e487b7100000000000000000000000000000000000000000000000000000000600052603260045260246000fd5b7f4e487b7100000000000000000000000000000000000000000000000000000000600052602260045260246000fd5b60006002820490506001821680611eaa57607f821691505b602082108103611ebd57611ebc611e63565b5b50919050565b6000611ece8261164c565b91507fffffffffffffffffffffffffffffffffffffffffffffffffffffffffffffffff8203611f0057611eff611da2565b5b600182019050919050565b600080fd5b600080fd5b600080fd5b60008083356001602003843603038112611f3757611f36611f0b565b5b80840192508235915067ffffffffffffffff821115611f5957611f58611f10565b5b602083019250600182023603831315611f7557611f74611f15565b5b509250929050565b600082905092915050565b60008190508160005260206000209050919050565b60006020601f8301049050919050565b600082821b905092915050565b600060088302611fea7fffffffffffffffffffffffffffffffffffffffffffffffffffffffffffffffff82611fad565b611ff48683611fad565b95508019841693508086168417925050509392505050565b600061202761202261201d8461164c565b61183b565b61164c565b9050919050565b6000819050919050565b6120418361200c565b61205561204d8261202e565b848454611fba565b825550505050565b600090565b61206a61205d565b612075818484612038565b505050565b5b818110156120995761208e600082612062565b60018101905061207b565b5050565b601f8211156120de576120af81611f88565b6120b884611f9d565b810160208510156120c7578190505b6120db6120d385611f9d565b83018261207a565b50505b505050565b600082821c905092915050565b6000612101600019846008026120e3565b1980831691505092915050565b600061211a83836120f0565b9150826002028217905092915050565b6121348383611f7d565b67ffffffffffffffff81111561214d5761214c611e05565b5b6121578254611e92565b61216282828561209d565b6000601f831160018114612191576000841561217f578287013590505b612189858261210e565b8655506121f1565b601f19841661219f86611f88565b60005b828110156121c7578489013582556001820191506020850194506020810190506121a2565b868310156121e457848901356121e0601f8916826120f0565b8355505b6001600288020188555050505b50505050505050565b61220583838361212a565b505050565b600061221582611703565b9050919050565b6122258161220a565b811461223057600080fd5b50565b600081356122408161221c565b80915050919050565b60008160001b9050919050565b600073ffffffffffffffffffffffffffffffffffffffff61227684612249565b9350801983169250808416831791505092915050565b600061229782611845565b9050919050565b60006122a98261228c565b9050919050565b6000819050919050565b6122c38261229e565b6122d66122cf826122b0565b8354612256565b8255505050565b600080833560016020038436030381126122fa576122f9611f0b565b5b80840192508235915067ffffffffffffffff82111561231c5761231b611f10565b5b60208301925060018202360383131561233857612337611f15565b5b509250929050565b600082905092915050565b60008190508160005260206000209050919050565b601f8211156123a1576123728161234b565b61237b84611f9d565b8101602085101561238a578190505b61239e61239685611f9d565b83018261207a565b50505b505050565b6123b08383612340565b67ffffffffffffffff8111156123c9576123c8611e05565b5b6123d38254611e92565b6123de828285612360565b6000601f83116001811461240d57600084156123fb578287013590505b612405858261210e565b86555061246d565b601f19841661241b8661234b565b60005b828110156124435784890135825560018201915060208501945060208101905061241e565b86831015612460578489013561245c601f8916826120f0565b8355505b6001600288020188555050505b50505050505050565b6124818383836123a6565b505050565b60008101600083016124988185611f1a565b6124a38183866121fa565b505050506001810160208301806124b981612233565b90506124c581846122ba565b50505060028101604083016124da81856122dd565b6124e5818386612476565b505050505050565b6124f78282612486565b5050565b600082825260208201905092915050565b7f76616c696461746f72206973206e6f742073657420666f72207468697320726560008201527f7175657374206964000000000000000000000000000000000000000000000000602082015250565b60006125686028836124fb565b91506125738261250c565b604082019050919050565b600060208201905081810360008301526125978161255b565b9050919050565b7f7265717565737420696420646f65736e27742065786973740000000000000000600082015250565b60006125d46018836124fb565b91506125df8261259e565b602082019050919050565b60006020820190508181036000830152612603816125c7565b9050919050565b7f4f776e61626c653a206e6577206f776e657220697320746865207a65726f206160008201527f6464726573730000000000000000000000000000000000000000000000000000602082015250565b60006126666026836124fb565b91506126718261260a565b604082019050919050565b6000602082019050818103600083015261269581612659565b9050919050565b7f4c656e6774682073686f756c642062652067726561746572207468616e203000600082015250565b60006126d2601f836124fb565b91506126dd8261269c565b602082019050919050565b60006020820190508181036000830152612701816126c5565b9050919050565b7f4c656e677468206c696d69742065786365656465640000000000000000000000600082015250565b600061273e6015836124fb565b915061274982612708565b602082019050919050565b6000602082019050818103600083015261276d81612731565b9050919050565b7f537461727420696e646578206f7574206f6620626f756e647300000000000000600082015250565b60006127aa6019836124fb565b91506127b582612774565b602082019050919050565b600060208201905081810360008301526127d98161279d565b9050919050565b60006127eb8261164c565b91506127f68361164c565b925082820190508082111561280e5761280d611da2565b5b92915050565b7f4f776e61626c653a2063616c6c6572206973206e6f7420746865206f776e6572600082015250565b600061284a6020836124fb565b915061285582612814565b602082019050919050565b600060208201905081810360008301526128798161283d565b9050919050565b7f6368616c6c656e67650000000000000000000000000000000000000000000000600082015250565b60006128b66009836124fb565b91506128c182612880565b602082019050919050565b600060208201905081810360008301526128e5816128a9565b9050919050565b6000815190506128fb8161168a565b92915050565b60006020828403121561291757612916611680565b5b6000612925848285016128ec565b91505092915050565b7f6164647265737320696e2070726f6f66206973206e6f7420612073656e64657260008201527f2061646472657373000000000000000000000000000000000000000000000000602082015250565b600061298a6028836124fb565b91506129958261292e565b604082019050919050565b600060208201905081810360008301526129b98161297d565b9050919050565b600082825260208201905092915050565b600080fd5b82818337505050565b60006129eb83856129c0565b93507f07ffffffffffffffffffffffffffffffffffffffffffffffffffffffffffffff831115612a1e57612a1d6129d1565b5b602083029250612a2f8385846129d6565b82840190509392505050565b612a47604083836129d6565b5050565b600060029050919050565b600081905092915050565b6000819050919050565b612a77604083836129d6565b5050565b6000612a878383612a6b565b60408301905092915050565b600082905092915050565b6000604082019050919050565b612ab481612a4b565b612abe8184612a56565b9250612ac982612a61565b8060005b83811015612b0257612adf8284612a93565b612ae98782612a7b565b9650612af483612a9e565b925050600181019050612acd565b505050505050565b600082825260208201905092915050565b6000612b268261189a565b612b308185612b0a565b9350612b408185602086016117c7565b612b49816117f1565b840191505092915050565b6000610140820190508181036000830152612b7081888a6129df565b9050612b7f6020830187612a3b565b612b8c6060830186612aab565b612b9960e0830185612a3b565b818103610120830152612bac8184612b1b565b9050979650505050505050565b60007fffffffff0000000000000000000000000000000000000000000000000000000082169050919050565b6000819050919050565b612c00612bfb82612bb9565b612be5565b82525050565b600081905092915050565b6000612c1c8261189a565b612c268185612c06565b9350612c368185602086016117c7565b80840191505092915050565b60008160601b9050919050565b6000612c5a82612c42565b9050919050565b6000612c6c82612c4f565b9050919050565b612c84612c7f82611703565b612c61565b82525050565b6000612c968286612bef565b600482019150612ca68285612c11565b9150612cb28284612c73565b601482019150819050949350505050565b6000612ccf8284612c11565b915081905092915050565b7f4661696c656420746f207665726966792070726f6f6620776974686f7574207260008201527f657665727420726561736f6e0000000000000000000000000000000000000000602082015250565b6000612d36602c836124fb565b9150612d4182612cda565b604082019050919050565b60006020820190508181036000830152612d6581612d29565b9050919050565b7f56616c696461746564205375636365737366756c6c7900000000000000000000600082015250565b6000612da26016836124fb565b9150612dad82612d6c565b602082019050919050565b60006060820190508181036000830152612dd181612d95565b9050612de06020830185611715565b612ded6040830184611656565b939250505056fea26469706673582212209fd455a316e97f4920217ebfb9f94b176c5299a05c22efea68af0a490a243b1064736f6c63430008100033",
  "linkReferences": {},
  "deployedLinkReferences": {}
}